:040000003C010002BD
:040004003421FFFCA8
:040008000001F020E3
:04000C003C010002B1
:040010003421FFFC9C
:040014000001E820DF
:04001800081006FDC9
:04001C0023BD0004FC
:04002000AFBF00006E
:0400240023BD0004F4
:04002800AFBE000067
:04002C00001DF021A2
:0400300023BD01905B
:0400340023BD0004E4
:0400380023BD019053
:04003C0023BD0004DC
:0400400023BD01904B
:0400440023BD0004D4
:0400480023BD0004D0
:04004C00200D000083
:04005000AFCD04C06C
:040054008FC804C08D
:04005800290800640F
:04005C001900001B6C
:04006000000000009C
:04006400200D00006B
:040068008FC804C079
:04006C0000084080C8
:04007000000858210B
:04007400017E4021A8
:04007800AD0D0004C6
:04007C00200D000053
:040080008FC804C061
:0400840000084080B0
:0400880000085821F3
:04008C00017E402190
:04009000AD0D019819
:04009400200D00003B
:040098008FC804C049
:04009C000008408098
:0400A00000085821DB
:0400A400017E402178
:0400A800AD0D032C6B
:0400AC008FC804C035
:0400B0002108000122
:0400B400AFC804C00D
:0400B8008FC804C029
:0400BC0029080064AB
:0400C00039080001FA
:0400C4001900FFE739
:0400C8000000000034
:0400CC00200D000102
:0400D000AFCD0004AC
:0400D400200D0001FA
:0400D800AFCD019413
:0400DC00200D0001F2
:0400E000AFCD019807
:0400E400200D0001EA
:0400E800AFCD03286D
:0400EC00200D0001E2
:0400F000AFCD04C0CC
:0400F4008FC8FFF8BA
:0400F8000008482193
:0400FC008FC804C0E5
:040100000109402A87
:04010400190000B02E
:0401080000000000F3
:04010C0023BD00040B
:0401100023BD000407
:04011400200D0000BA
:04011800AFCD04C49F
:04011C008FC803285D
:04012000000848216A
:040124008FC80194EB
:040128000109402A5F
:04012C0019000006B0
:0401300000000000CB
:040134008FC8032845
:040138000008682132
:04013C00AFCD04C877
:04014000081000554E
:0401440000000000B7
:040148008FC80194C7
:04014C00000868211E
:04015000AFCD04C863
:0401540023BD0004C3
:04015800200D000076
:04015C00AFCD04CC53
:040160008FC804C878
:040164000008482126
:040168008FC804CC6C
:04016C000109402A1B
:040170001900003A38
:040174000000000087
:0401780023BD00049F
:04017C008FC804CC58
:0401800000084080B3
:04018400011E4021F7
:040188008D08019845
:04018C0000084821FE
:040190008FC804CC44
:04019400000840809F
:04019800011E4021E3
:04019C008D080004C6
:0401A00001094021F0
:0401A40000086821C6
:0401A800AFCD04D003
:0401AC008FC804C430
:0401B00000084821DA
:0401B4008FC804D01C
:0401B80001094021D8
:0401BC0000086821AE
:0401C0008FC804CC14
:0401C400000840806F
:0401C80000085821B2
:0401CC00017E40214F
:0401D000AD0D032C42
:0401D4008FC804CC00
:0401D800000840805B
:0401DC00011E40219F
:0401E0008D08032C57
:0401E4002908000ADC
:0401E80019000005F5
:0401EC00000000000F
:0401F000200D0000DE
:0401F400AFCD04C4C3
:0401F8000810008D5E
:0401FC0000000000FF
:04020000200D0001CC
:04020400AFCD04C4B2
:040208008FC804CCCB
:04020C000008408026
:04021000011E40216A
:040214008D08032C22
:040218002508FFF6C0
:04021C00000868214D
:040220008FC804CCB3
:04022400000840800E
:040228000008582151
:04022C00017E4021EE
:04023000AD0D032CE1
:040234008FC804CC9F
:040238002108000198
:04023C00AFC804CC77
:040240008FC804C897
:040244000008482145
:040248008FC804CC8B
:04024C000109402A3A
:040250003908000168
:040254001900FFC8C6
:0402580000000000A2
:04025C008FC804C47F
:040260001900000D74
:040264000000000096
:040268008FC804C473
:04026C0000086821FD
:040270008FC804CC63
:0402740000084080BE
:040278000008582101
:04027C00017E40219E
:04028000AD0D032C91
:040284008FC804CC4F
:040288002108000148
:04028C00AFC804CC27
:04029000081000A7AB
:040294000000000066
:040298000000000062
:04029C008FC804CC37
:0402A00000086821C9
:0402A400AFCD04BC1A
:0402A800200D000025
:0402AC00AFCD04CC02
:0402B0008FC80328C8
:0402B40000084821D5
:0402B8008FC804CC1B
:0402BC000109402ACA
:0402C000190000150C
:0402C4000000000036
:0402C8008FC804CC0B
:0402CC000008408066
:0402D000011E4021AA
:0402D4008D080198F8
:0402D8000008682191
:0402DC008FC804CCF7
:0402E0000008408052
:0402E4000008582195
:0402E800017E402132
:0402EC00AD0D000450
:0402F0008FC804CCE3
:0402F40021080001DC
:0402F800AFC804CCBB
:0402FC008FC803287C
:040300000008482188
:040304008FC804CCCE
:040308000109402A7D
:04030C0039080001AB
:040310001900FFEDE4
:0403140000000000E5
:040318008FC803285F
:04031C00000868214C
:04032000AFCD0194C8
:04032400200D0000A8
:04032800AFCD04CC85
:04032C008FC804BCB6
:040330000008482158
:040334008FC804CC9E
:040338000109402A4D
:04033C00190000158F
:0403400000000000B9
:040344008FC804CC8E
:0403480000084080E9
:04034C00011E40212D
:040350008D08032CE5
:040354000008682114
:040358008FC804CC7A
:04035C0000084080D5
:040360000008582118
:04036400017E4021B5
:04036800AD0D01983E
:04036C008FC804CC66
:04037000210800015F
:04037400AFC804CC3E
:040378008FC804BC6A
:04037C00000848210C
:040380008FC804CC52
:040384000109402A01
:04038800390800012F
:04038C001900FFED68
:040390000000000069
:040394008FC804BC4E
:0403980000086821D0
:04039C00AFCD0328B6
:0403A0008FC804C03E
:0403A400210800012B
:0403A800AFC804C016
:0403AC008FC8FFF8FF
:0403B00000084821D8
:0403B4008FC804C02A
:0403B8000109402ACD
:0403BC0039080001FB
:0403C0001900FF52CF
:0403C4000000000035
:0403C80023BD00044D
:0403CC008FC8019441
:0403D0002508FFFFFE
:0403D4000008682194
:0403D800AFCD04C0E1
:0403DC008FC804C002
:0403E00029080000E8
:0403E40039080001D3
:0403E8001900001DDB
:0403EC00000000000D
:0403F0008FC804C0EE
:0403F400000840803D
:0403F800011E402181
:0403FC008D08000464
:040400000008682167
:04040400AFCD04D4A0
:040408008FC804D4C1
:04040C00250800308F
:040410000008682157
:04041400AFCD04D490
:040418008FC8FFF496
:04041C00000868214B
:040420008FC804D4A9
:04042400ADA800007F
:040428008FC8FFF486
:04042C00250800049B
:040430000008682137
:04043400AFCDFFF455
:040438008FC804C0A5
:04043C002508FFFF91
:040440000008682127
:04044400AFCD04C074
:040448008FC804C095
:04044C00290800007B
:040450003908000166
:040454003908000162
:040458001900FFE5A3
:04045C00000000009C
:040460008FC8FFF44E
:040464000008682103
:040468002008000068
:04046C00ADA8000037
:040470002008000060
:04047400000810214B
:04047800001EE82159
:04047C008FBE00002F
:0404800023BDFFFC9D
:040484008FBF000026
:0404880023BDFFFC95
:04048C0003E0000881
:0404900023BD000484
:04049400AFBF0000F6
:0404980023BD00047C
:04049C00AFBE0000EF
:0404A000001DF0212A
:0404A4008FC8FFF806
:0404A800200C000024
:0404AC00010C482ACD
:0404B0000188502A45
:0404B400012A4027B2
:0404B800000847C031
:0404BC00000847C22B
:0404C0001900000B14
:0404C4000000000034
:0404C8002008000107
:0404CC0000081021F3
:0404D000001EE82101
:0404D4008FBE0000D7
:0404D80023BDFFFC45
:0404DC008FBF0000CE
:0404E00023BDFFFC3D
:0404E40003E0000829
:0404E80008100152A5
:0404EC00000000000C
:0404F00023BD000424
:0404F4008FC8FFF8B6
:0404F8002508FFFFD5
:0404FC0023BD000418
:04050000AFA80000A0
:040504000C100124B2
:04050800000240218C
:04050C00000868215A
:04051000AFCD000467
:040514008FC8FFF895
:040518000008702146
:04051C008FC8000480
:040520000008782136
:0405240001CF0018EB
:04052800000040127D
:04052C000008102192
:04053000001EE821A0
:040534008FBE000076
:0405380023BDFFFCE4
:04053C008FBF00006D
:0405400023BDFFFCDC
:0405440003E00008C8
:0405480023BD0004CB
:04054C00AFBF00003D
:0405500023BD0004C3
:04055400AFBE000036
:04055800001DF02171
:04055C0023BD007C3F
:0405600023BD0004B3
:0405640023BD0004AF
:040568008FC8FFF841
:04056C008D080000F6
:0405700000086821F6
:04057400AFCD008087
:04057800200D000052
:04057C00AFCD00847B
:040580008FC80080A0
:04058400200C000047
:04058800010C482AF0
:04058C000188502A68
:04059000012A4027D5
:04059400000847C054
:04059800000847C24E
:04059C003908000119
:0405A0001900001E20
:0405A4000000000053
:0405A8008FC8008078
:0405AC0000086821BA
:0405B0008FC800846C
:0405B400000840807B
:0405B80000085821BE
:0405BC00017E40215B
:0405C000AD0D000479
:0405C4008FC8008458
:0405C8002108000105
:0405CC00AFC8008430
:0405D0008FC8FFF8D9
:0405D40025080004F2
:0405D800000868218E
:0405DC00AFCDFFF8A8
:0405E0008FC8FFF8C9
:0405E4008D0800007E
:0405E800000868217E
:0405EC00AFCD00800F
:0405F0008FC8008030
:0405F400200C0000D7
:0405F800010C482A80
:0405FC000188502AF8
:04060000012A402764
:04060400000847C0E3
:04060800000847C2DD
:04060C0039080001A8
:0406100039080001A4
:040614001900FFE4E6
:0406180000000000DE
:04061C00200D0000AD
:040620008FC80084FB
:04062400000840800A
:04062800000858214D
:04062C00017E4021EA
:04063000AD0D000408
:0406340023BD0004DE
:0406380023BD007C62
:04063C0023BD0004D6
:0406400023BD007C5A
:0406440023BD0004CE
:0406480023BD007C52
:04064C0023BD0004C6
:0406500023BD0004C2
:0406540023BD0004BE
:04065800200D003041
:04065C00AFCD020C10
:04066000200D003930
:04066400AFCD021004
:0406680023BD0004AA
:04066C00200D00005D
:04067000AFCD018881
:04067400200D000055
:04067800AFCD0108F9
:04067C00200D00004D
:04068000AFCD0214E4
:040684008FC8021405
:0406880000084080A6
:04068C00011E4021EA
:040690008D080004CD
:04069400200C000036
:04069800010C482ADF
:04069C000188502A57
:0406A000012A4027C4
:0406A400000847C043
:0406A800000847C23D
:0406AC003908000108
:0406B00019000177B5
:0406B4000000000042
:0406B8008FC8020CD9
:0406BC0000084821C9
:0406C0008FC80214C9
:0406C400000840806A
:0406C800011E4021AE
:0406CC008D08000491
:0406D0000109402AB2
:0406D40039080001E0
:0406D8000008702185
:0406DC008FC80214AD
:0406E000000840804E
:0406E400011E402192
:0406E8008D08000475
:0406EC000008482199
:0406F0008FC802109D
:0406F4000109402A8E
:0406F80039080001BC
:0406FC000008782159
:0407000039C90001F2
:0407040039EA0001CD
:04070800012A40275B
:04070C00000847C0DA
:04071000000847C2D4
:0407140019000010B8
:0407180000000000DD
:04071C008FC802146C
:04072000000840800D
:04072400011E402151
:040728008D08000434
:04072C000008682138
:040730008FC8010865
:0407340000084080F9
:04073800000858213C
:04073C00017E4021D9
:04074000AD0D008C6F
:040744008FC8010851
:040748002108000183
:04074C00AFC8010829
:040750000810031377
:0407540000000000A1
:040758008FC8021430
:04075C0000084080D1
:04076000011E402115
:040764008D080004F8
:04076800200C002839
:04076C00010C482A0A
:040770000188502A82
:04077400012A4027EF
:04077800000847C06E
:04077C00000847C268
:04078000190000104C
:040784000000000071
:040788008FC8021400
:04078C0000084080A1
:04079000011E4021E5
:040794008D080004C8
:0407980000086821CC
:04079C008FC8018879
:0407A000000840808D
:0407A40000085821D0
:0407A800017E40216D
:0407AC00AD0D010C82
:0407B0008FC8018865
:0407B4002108000117
:0407B800AFC801883D
:0407BC00081003130B
:0407C0000000000035
:0407C4008FC80214C4
:0407C8000008408065
:0407CC00011E4021A9
:0407D0008D0800048C
:0407D400200C0029CC
:0407D800010C482A9E
:0407DC000188502A16
:0407E000012A402783
:0407E400000847C002
:0407E800000847C2FC
:0407EC0019000036BA
:0407F0000000000005
:0407F4008FC8018821
:0407F8002508FFFFD2
:0407FC000008408031
:04080000011E402174
:040804008D08010C4E
:04080800200C002898
:04080C00010C482A69
:040810000188502AE1
:04081400012A40274E
:04081800000847C0CD
:04081C00000847C2C7
:040820003908000192
:040824001900002295
:0408280000000000CC
:04082C008FC80188E8
:040830002508FFFF99
:0408340000084080F8
:04083800011E40213C
:04083C008D08010C16
:040840000008682123
:040844008FC8010850
:0408480000084080E4
:04084C000008582127
:04085000017E4021C4
:04085400AD0D008C5A
:040858008FC801083C
:04085C00210800016E
:04086000AFC8010814
:040864008FC80188B0
:040868002508FFFF61
:04086C0000086821F7
:04087000AFCD01887F
:040874008FC80188A0
:040878002508FFFF51
:04087C0000084080B0
:04088000011E4021F4
:040884008D08010CCE
:04088800200C002818
:04088C00010C482AE9
:040890000188502A61
:04089400012A4027CE
:04089800000847C04D
:04089C00000847C247
:0408A0003908000112
:0408A400390800010E
:0408A8001900FFE054
:0408AC000000000048
:0408B0008FC8018864
:0408B4002508FFFF15
:0408B80000086821AB
:0408BC00AFCD018833
:0408C0000810031306
:0408C4000000000030
:0408C8008FC80214BF
:0408CC000008408060
:0408D000011E4021A4
:0408D4008D08000487
:0408D800200C002AC6
:0408DC00010C482A99
:0408E0000188502A11
:0408E400012A40277E
:0408E800000847C0FD
:0408EC00000847C2F7
:0408F000000870216B
:0408F4008FC8018820
:0408F8002508FFFFD1
:0408FC000008408030
:04090000011E402173
:040904008D08010C4D
:04090800200C002A95
:04090C00010C482A68
:040910000188502AE0
:04091400012A40274D
:04091800000847C0CC
:04091C00000847C2C6
:040920003908000191
:04092400000878212E
:0409280039C90001C8
:04092C0039EA0001A3
:04093000012A402731
:04093400000847C0B0
:04093800000847C2AA
:04093C00190000108E
:0409400000000000B3
:040944008FC8021442
:0409480000084080E3
:04094C00011E402127
:040950008D0800040A
:04095400000868210E
:040958008FC80188BB
:04095C0000084080CF
:040960000008582112
:04096400017E4021AF
:04096800AD0D010CC4
:04096C008FC80188A7
:040970002108000159
:04097400AFC801887F
:04097800081003134D
:04097C000000000077
:040980008FC8021406
:0409840000084080A7
:04098800011E4021EB
:04098C008D080004CE
:04099000200C002A0D
:04099400010C482AE0
:040998000188502A58
:04099C00012A4027C5
:0409A000000847C044
:0409A400000847C23E
:0409A8001900004EE4
:0409AC000000000047
:0409B0008FC8018863
:0409B400200C000013
:0409B800010C482ABC
:0409BC000188502A34
:0409C000012A4027A1
:0409C400000847C020
:0409C800000847C21A
:0409CC0039080001E5
:0409D000000870218A
:0409D4008FC801883F
:0409D8002508FFFFF0
:0409DC00000840804F
:0409E000011E402193
:0409E4008D08010C6D
:0409E800200C002AB5
:0409EC00010C482A88
:0409F0000188502A00
:0409F400012A40276D
:0409F800000847C0EC
:0409FC00000847C2E6
:040A00000008782151
:040A040039C90001EB
:040A080039EA0001C6
:040A0C00012A402754
:040A1000000847C0D3
:040A1400000847C2CD
:040A18001900003091
:040A1C0000000000D6
:040A20008FC80188F2
:040A24002508FFFFA3
:040A28000008408002
:040A2C00011E402146
:040A30008D08010C20
:040A3400000868212D
:040A38008FC801085A
:040A3C0000084080EE
:040A40000008582131
:040A4400017E4021CE
:040A4800AD0D008C64
:040A4C008FC8010846
:040A50002108000178
:040A5400AFC801081E
:040A58008FC80188BA
:040A5C002508FFFF6B
:040A60000008682101
:040A6400AFCD018889
:040A68008FC80188AA
:040A6C00200C00005A
:040A7000010C482A03
:040A74000188502A7B
:040A7800012A4027E8
:040A7C00000847C067
:040A8000000847C261
:040A8400390800012C
:040A880000087021D1
:040A8C008FC8018886
:040A90002508FFFF37
:040A94000008408096
:040A9800011E4021DA
:040A9C008D08010CB4
:040AA000200C002AFC
:040AA400010C482ACF
:040AA8000188502A47
:040AAC00012A4027B4
:040AB000000847C033
:040AB400000847C22D
:040AB8000008782199
:040ABC0039C9000133
:040AC00039EA00010E
:040AC400012A40279C
:040AC800000847C01B
:040ACC00000847C215
:040AD00039080001E0
:040AD4001900FFD234
:040AD800000000001A
:040ADC0008100306F5
:040AE0000000000012
:040AE4008FC801882E
:040AE800200C0000DE
:040AEC00010C482A87
:040AF0000188502AFF
:040AF400012A40276C
:040AF800000847C0EB
:040AFC00000847C2E5
:040B000039080001AF
:040B04000008702154
:040B08008FC8018809
:040B0C002508FFFFBA
:040B10000008408019
:040B1400011E40215D
:040B18008D08010C37
:040B1C00200C002881
:040B2000010C482A52
:040B24000188502ACA
:040B2800012A402737
:040B2C00000847C0B6
:040B3000000847C2B0
:040B3400390800017B
:040B38000008782118
:040B3C0039C90001B2
:040B400039EA00018D
:040B4400012A40271B
:040B4800000847C09A
:040B4C00000847C294
:040B50001900003157
:040B5400000000009D
:040B58008FC80188B9
:040B5C002508FFFF6A
:040B600000084080C9
:040B6400011E40210D
:040B68008D08010CE7
:040B6C0000086821F4
:040B70008FC8010821
:040B740000084080B5
:040B780000085821F8
:040B7C00017E402195
:040B8000AD0D008C2B
:040B84008FC801080D
:040B8800210800013F
:040B8C00AFC80108E5
:040B90008FC8018881
:040B94002508FFFF32
:040B980000086821C8
:040B9C00AFCD018850
:040BA0008FC8018871
:040BA400200C000021
:040BA800010C482ACA
:040BAC000188502A42
:040BB000012A4027AF
:040BB400000847C02E
:040BB800000847C228
:040BBC0039080001F3
:040BC0000008702198
:040BC4008FC801884D
:040BC8002508FFFFFE
:040BCC00000840805D
:040BD000011E4021A1
:040BD4008D08010C7B
:040BD800200C0028C5
:040BDC00010C482A96
:040BE0000188502A0E
:040BE400012A40277B
:040BE800000847C0FA
:040BEC00000847C2F4
:040BF00039080001BF
:040BF400000878215C
:040BF80039C90001F6
:040BFC0039EA0001D1
:040C0000012A40275E
:040C0400000847C0DD
:040C0800000847C2D7
:040C0C0039080001A2
:040C10001900FFD1F7
:040C140000000000DC
:040C18008FC802146B
:040C1C00000840800C
:040C2000011E402150
:040C24008D08000433
:040C28000008682137
:040C2C008FC80188E4
:040C300000084080F8
:040C3400000858213B
:040C3800017E4021D8
:040C3C00AD0D010CED
:040C40008FC80188D0
:040C44002108000182
:040C4800AFC80188A8
:040C4C008FC8021437
:040C50002108000176
:040C5400AFC802140F
:040C58008FC802142B
:040C5C0000084080CC
:040C6000011E402110
:040C64008D080004F3
:040C6800200C00005C
:040C6C00010C482A05
:040C70000188502A7D
:040C7400012A4027EA
:040C7800000847C069
:040C7C00000847C263
:040C8000390800012E
:040C8400390800012A
:040C88001900FE8BC6
:040C8C000000000064
:040C90008FC8018880
:040C9400200C000030
:040C9800010C482AD9
:040C9C000188502A51
:040CA000012A4027BE
:040CA400000847C03D
:040CA800000847C237
:040CAC003908000102
:040CB0001900001E09
:040CB400000000003C
:040CB8008FC8018858
:040CBC002508FFFF09
:040CC0000008408068
:040CC400011E4021AC
:040CC8008D08010C86
:040CCC000008682193
:040CD0008FC80108C0
:040CD4000008408054
:040CD8000008582197
:040CDC00017E402134
:040CE000AD0D008CCA
:040CE4008FC80108AC
:040CE80021080001DE
:040CEC00AFC8010884
:040CF0008FC8018820
:040CF4002508FFFFD1
:040CF8000008682167
:040CFC00AFCD0188EF
:040D00008FC801880F
:040D0400200C0000BF
:040D0800010C482A68
:040D0C000188502AE0
:040D1000012A40274D
:040D1400000847C0CC
:040D1800000847C2C6
:040D1C003908000191
:040D2000390800018D
:040D24001900FFE4CF
:040D280000000000C7
:040D2C00200D000096
:040D3000AFCD020839
:040D3400200D00008E
:040D3800AFCD021425
:040D3C008FC8010853
:040D4000000848213E
:040D44008FC802143E
:040D48000109402A33
:040D4C00190000A1E9
:040D5000000000009F
:040D54008FC8020C36
:040D58000008482126
:040D5C008FC8021426
:040D600000084080C7
:040D6400011E40210B
:040D68008D08008C66
:040D6C000109402A0F
:040D7000390800013D
:040D740000087021E2
:040D78008FC802140A
:040D7C0000084080AB
:040D8000011E4021EF
:040D84008D08008C4A
:040D880000084821F6
:040D8C008FC80210FA
:040D90000109402AEB
:040D94003908000119
:040D980000087821B6
:040D9C0039C9000150
:040DA00039EA00012B
:040DA400012A4027B9
:040DA800000847C038
:040DAC00000847C232
:040DB0001900001115
:040DB400000000003B
:040DB8008FC80214CA
:040DBC00000840806B
:040DC000011E4021AF
:040DC4008D08008C0A
:040DC8002508FFD02B
:040DCC000008682192
:040DD0008FC80208BE
:040DD4000008408053
:040DD8000008582196
:040DDC00017E402133
:040DE000AD0D018CC8
:040DE4008FC80208AA
:040DE80021080001DD
:040DEC00AFC8020882
:040DF000081003EBF9
:040DF40000000000FB
:040DF80023BD000413
:040DFC0023BD00040F
:040E00008FC802088D
:040E04002508FFFFBF
:040E0800000840801E
:040E0C00011E402162
:040E10008D08018CBC
:040E14000008682149
:040E1800AFCD021C3C
:040E1C008FC8020871
:040E20002508FFFFA3
:040E24000008682139
:040E2800AFCD020840
:040E2C008FC8020861
:040E30002508FFFF93
:040E340000084080F2
:040E3800011E402136
:040E3C008D08018C90
:040E4000000868211D
:040E4400AFCD021814
:040E48008FC8020845
:040E4C002508FFFF77
:040E5000000868210D
:040E5400AFCD020814
:040E58008FC8021429
:040E5C0000084080CA
:040E6000011E40210E
:040E64008D08008C69
:040E6800200C002B2F
:040E6C00010C482A03
:040E70000188502A7B
:040E7400012A4027E8
:040E7800000847C067
:040E7C00000847C261
:040E80001900001045
:040E8400000000006A
:040E88008FC8021CF1
:040E8C0000084821F1
:040E90008FC80218ED
:040E940001094021EF
:040E980000086821C5
:040E9C008FC80208F1
:040EA0000008408086
:040EA40000085821C9
:040EA800017E402166
:040EAC00AD0D018CFB
:040EB0008FC80208DD
:040EB4002108000110
:040EB800AFC80208B5
:040EBC00081003EB2C
:040EC000000000002E
:040EC4008FC80214BD
:040EC800000840805E
:040ECC00011E4021A2
:040ED0008D08008CFD
:040ED400200C002DC1
:040ED800010C482A97
:040EDC000188502A0F
:040EE000012A40277C
:040EE400000847C0FB
:040EE800000847C2F5
:040EEC0019000011D8
:040EF00000000000FE
:040EF4008FC8021889
:040EF800000870215D
:040EFC008FC8021C7D
:040F0000000878214C
:040F040001CF4023B6
:040F08000008682154
:040F0C008FC8020880
:040F10000008408015
:040F14000008582158
:040F1800017E4021F5
:040F1C00AD0D018C8A
:040F20008FC802086C
:040F2400210800019F
:040F2800AFC8020844
:040F2C00081003EBBB
:040F300000000000BD
:040F34008FC802144C
:040F380000084080ED
:040F3C00011E402131
:040F40008D08008C8C
:040F4400200C002A53
:040F4800010C482A26
:040F4C000188502A9E
:040F5000012A40270B
:040F5400000847C08A
:040F5800000847C284
:040F5C001900001266
:040F6000000000008D
:040F64008FC8021818
:040F680000087021EC
:040F6C008FC8021C0C
:040F700000087821DC
:040F740001CF001891
:040F78000000401223
:040F7C0000086821E0
:040F80008FC802080C
:040F840000084080A1
:040F880000085821E4
:040F8C00017E402181
:040F9000AD0D018C16
:040F94008FC80208F8
:040F9800210800012B
:040F9C00AFC80208D0
:040FA000081003EB47
:040FA4000000000049
:040FA8000000000045
:040FAC008FC80214D4
:040FB0002108000113
:040FB400AFC80214AC
:040FB8008FC80108D5
:040FBC0000084821C0
:040FC0008FC80214C0
:040FC4000109402AB5
:040FC80039080001E3
:040FCC001900FF61A8
:040FD000000000001D
:040FD4008FC80208B8
:040FD8002508FFFFEA
:040FDC000008408049
:040FE000011E40218D
:040FE4008D08018CE7
:040FE8000008682174
:040FEC00AFCD0088FD
:040FF0008FC800881E
:040FF40000081021C0
:040FF800001EE821CE
:040FFC008FBE0000A4
:0410000023BDFFFC11
:041004008FBF00009A
:0410080023BDFFFC09
:04100C0003E00008F5
:0410100023BD0004F8
:04101400AFBF00006A
:0410180023BD0004F0
:04101C00AFBE000063
:04102000001DF0219E
:0410240023BD0004E4
:04102800200D000097
:04102C00AFCD000440
:041030008FC8FFF86E
:041034008D08000023
:04103800000870211B
:04103C002008000088
:04104000000878210B
:0410440001CF482A66
:0410480001EE502A3B
:04104C00012A40270E
:04105000000847C08D
:04105400000847C287
:041058003908000152
:04105C001900001661
:04106000000000008C
:041064008FC800042D
:04106800210800015A
:04106C00AFC8000405
:041070008FC8FFF82E
:041074002508000447
:0410780000086821E3
:04107C00AFCDFFF8FD
:041080008FC8FFF81E
:041084008D080000D3
:0410880000087021CB
:04108C002008000038
:0410900000087821BB
:0410940001CF482A16
:0410980001EE502AEB
:04109C00012A4027BE
:0410A000000847C03D
:0410A400000847C237
:0410A8003908000102
:0410AC0039080001FE
:0410B0001900FFEC38
:0410B4000000000038
:0410B8008FC80004D9
:0410BC0000081021F7
:0410C000001EE82105
:0410C4008FBE0000DB
:0410C80023BDFFFC49
:0410CC008FBF0000D2
:0410D00023BDFFFC41
:0410D40003E000082D
:0410D80023BD000430
:0410DC00AFBF0000A2
:0410E00023BD000428
:0410E400AFBE00009B
:0410E800001DF021D6
:0410EC0023BD00041C
:0410F00023BD000418
:0410F4008FC8FFF8AA
:0410F80023BD000410
:0410FC00AFA8000099
:041100000C100404C7
:041104000002402184
:041108000008682152
:04110C00AFCD00045F
:041110008FC8FFF491
:0411140023BD0004F3
:04111800AFA800007C
:04111C000C100404AB
:041120000002402168
:041124000008682136
:04112800AFCD00083F
:04112C008FC8000860
:041130000008602132
:041134008FC800045C
:04113800010C482A34
:04113C000188502AAC
:04114000012A402719
:04114400000847C098
:04114800000847C292
:04114C00390800015D
:041150001900000B77
:041154000000000097
:04115800200800006B
:04115C000008102156
:04116000001EE82164
:041164008FBE00003A
:0411680023BDFFFCA8
:04116C008FBF000031
:0411700023BDFFFCA0
:0411740003E000088C
:041178000810049CBB
:04117C00000000006F
:041180008FC8FFF81D
:041184008D080000D2
:0411880000087021CA
:04118C002008000037
:0411900000087821BA
:0411940001CF482A15
:0411980001EE502AEA
:04119C00012A4027BD
:0411A000000847C03C
:0411A400000847C236
:0411A8003908000101
:0411AC0019000030F6
:0411B000000000003B
:0411B4008FC8FFF8E9
:0411B8008D0800009E
:0411BC000008702196
:0411C0008FC8FFF4E1
:0411C4008D08000092
:0411C8000008782182
:0411CC0001CF482ADD
:0411D00001EE502AB2
:0411D400012A402785
:0411D800000847C004
:0411DC00000847C2FE
:0411E00039080001C9
:0411E4001900000BE3
:0411E8000000000003
:0411EC0020080000D7
:0411F00000081021C2
:0411F400001EE821D0
:0411F8008FBE0000A6
:0411FC0023BDFFFC14
:041200008FBF00009C
:0412040023BDFFFC0B
:0412080003E00008F7
:04120C00081004863C
:0412100000000000DA
:0412140000000000D6
:041218008FC8FFF884
:04121C00250800049D
:041220000008682139
:04122400AFCDFFF853
:041228008FC8FFF478
:04122C00250800048D
:041230000008682129
:04123400AFCDFFF447
:041238008FC8FFF864
:04123C008D08000019
:041240000008702111
:04124400200800007E
:041248000008782101
:04124C0001CF482A5C
:0412500001EE502A31
:04125400012A402704
:04125800000847C083
:04125C00000847C27D
:041260003908000148
:041264003908000144
:041268001900FFD298
:04126C00000000007E
:041270002008000151
:04127400000810213D
:04127800001EE8214B
:04127C008FBE000021
:0412800023BDFFFC8F
:041284008FBF000018
:0412880023BDFFFC87
:04128C0003E0000873
:0412900023BD000476
:04129400AFBF0000E8
:0412980023BD00046E
:04129C00AFBE0000E1
:0412A000001DF0211C
:0412A4008FC8FFF4FC
:0412A800200C000016
:0412AC00010C482ABF
:0412B0000188502A37
:0412B400012A4027A4
:0412B800000847C023
:0412BC00000847C21D
:0412C00019000017FA
:0412C4000000000026
:0412C8008FC8FFF8D4
:0412CC00000868218D
:0412D00020080030C2
:0412D400ADA80000C1
:0412D8008FC8FFF8C4
:0412DC0025080004DD
:0412E0000008682179
:0412E400AFCDFFF893
:0412E8008FC8FFF8B4
:0412EC00000868216D
:0412F00020080000D2
:0412F400ADA80000A1
:0412F80020080001C9
:0412FC0000081021B5
:04130000001EE821C2
:041304008FBE000098
:0413080023BDFFFC06
:04130C008FBF00008F
:0413100023BDFFFCFE
:0413140003E00008EA
:041318000810053381
:04131C0000000000CD
:0413200023BD003CAD
:0413240023BD0004E1
:0413280023BD0004DD
:04132C0023BD0004D9
:0413300023BD0004D5
:04133400200D000088
:04133800AFCD0040F5
:04133C002008000085
:041340000008702110
:041344008FC8FFF45B
:041348000008782100
:04134C0001CF402A63
:041350001900003050
:041354000000000095
:041358008FC8FFF447
:04135C0000087021F4
:041360002008000A57
:0413640000087821E4
:0413680015E000018B
:04136C000000000D70
:0413700001CF001B8E
:041374000000401223
:0413780000086821E0
:04137C00AFCD0044AD
:041380008FC80044CE
:0413840000087021CC
:041388002008000A2F
:04138C0000087821BC
:0413900001CF001871
:041394000000401203
:0413980000086821C0
:04139C00AFCD004C85
:0413A0008FC8FFF4FF
:0413A40000087021AC
:0413A8008FC8004C9E
:0413AC00000878219C
:0413B00001CF402306
:0413B40000086821A4
:0413B800AFCD00486D
:0413BC008FC800488E
:0413C00025080030CC
:0413C4000008682194
:0413C8008FC800408A
:0413CC000008408055
:0413D0000008582198
:0413D400017E402135
:0413D800AD0D000453
:0413DC008FC8004076
:0413E00021080001DF
:0413E400AFC800404E
:0413E8008FC8004466
:0413EC00000868216C
:0413F000AFCDFFF48A
:0413F40020080000CD
:0413F8000008702158
:0413FC008FC8FFF4A3
:041400000008782147
:0414040001CF402AAA
:04140800390800019E
:04140C001900FFD2F2
:0414100000000000D8
:041414008FC800403D
:041418002508FFFFA5
:04141C00000868213B
:04142000AFCD00400C
:0414240023BD0004E0
:041428008FC8004029
:04142C00000868212B
:04143000AFCD0050EC
:041434008FC800401D
:04143800290800007F
:04143C00390800016A
:041440001900001679
:0414440000000000A4
:041448008FC8FFF852
:04144C00000868210B
:041450008FC8004001
:0414540000084080CC
:04145800011E402110
:04145C008D080004F3
:04146000ADA8000033
:041464008FC8FFF836
:04146800250800044F
:04146C0000086821EB
:04147000AFCDFFF805
:041474008FC80040DD
:041478002508FFFF45
:04147C0000086821DB
:04148000AFCD0040AC
:041484008FC80040CD
:04148800290800002F
:04148C00390800011A
:041490003908000116
:041494001900FFEC50
:041498000000000050
:04149C008FC8FFF8FE
:0414A00000086821B7
:0414A400200800001C
:0414A800ADA80000EB
:0414AC008FC8005095
:0414B00000081021FF
:0414B400001EE8210D
:0414B8008FBE0000E3
:0414BC0023BDFFFC51
:0414C0008FBF0000DA
:0414C40023BDFFFC49
:0414C80003E0000835
:0414CC0023BD000438
:0414D000AFBF0000AA
:0414D40023BD000430
:0414D800AFBE0000A3
:0414DC00001DF021DE
:0414E00023BD000424
:0414E40023BD000420
:0414E80023BD00041C
:0414EC0023BD000418
:0414F000200D00309B
:0414F400AFCD000C6C
:0414F800200D00398A
:0414FC00AFCD001060
:04150000200D0000BA
:04150400AFCD00085F
:0415080023BD0004FB
:04150C0023BD0004F7
:041510008FC8FFF889
:041514008D0800003E
:04151800000868213E
:04151C00AFCD00143B
:041520008FC800145C
:04152400200C000097
:04152800010C482A40
:04152C000188502AB8
:04153000012A402725
:04153400000847C0A4
:04153800000847C29E
:04153C003908000169
:041540001900003C52
:0415440000000000A3
:041548008FC8000C3C
:04154C00000848212A
:041550008FC800142C
:041554000109402A1F
:04155800390800014D
:04155C0000087021F2
:041560008FC800141C
:041564000008482112
:041568008FC8001018
:04156C000109402A07
:041570003908000135
:0415740000087821D2
:0415780039C900016C
:04157C0039EA000147
:04158000012A4027D5
:04158400000847C054
:04158800000847C24E
:04158C00190000152D
:041590000000000057
:041594008FC80014E8
:041598002508FFD053
:04159C0000086821BA
:0415A000AFCD0018B3
:0415A4008FC80008E4
:0415A80000087021A6
:0415AC002008000A09
:0415B0000008782196
:0415B40001CF00184B
:0415B80000004012DD
:0415BC00000868219A
:0415C000AFCD0008A3
:0415C4008FC80018B4
:0415C80000084821AE
:0415CC008FC80008BC
:0415D00001094021AC
:0415D4000008682182
:0415D800AFCD00088B
:0415DC000810057A74
:0415E0000000000007
:0415E4000000000003
:0415E8008FC8FFF8B1
:0415EC0025080004CA
:0415F0000008682166
:0415F400AFCDFFF880
:0415F8008FC8FFF8A1
:0415FC008D08000056
:041600000008682155
:04160400AFCD001452
:041608008FC8001473
:04160C00200C0000AE
:04161000010C482A57
:041614000188502ACF
:04161800012A40273C
:04161C00000847C0BB
:04162000000847C2B5
:041624003908000180
:04162800390800017C
:04162C001900FFC6DC
:0416300000000000B6
:041634008FC8000853
:041638000008102175
:04163C00001EE82183
:041640008FBE000059
:0416440023BDFFFCC7
:041648008FBF000050
:04164C0023BDFFFCBF
:0416500003E00008AB
:0416540023BD0004AE
:04165800AFBF000020
:04165C0023BD0004A6
:04166000AFBE000019
:04166400001DF02154
:041668008FC8FFF830
:04166C008D080000E5
:0416700000087021DD
:04167400200800004A
:0416780000087821CD
:04167C0001CF482A28
:0416800001EE502AFD
:04168400012A4027D0
:04168800000847C04F
:04168C00000847C249
:041690003908000114
:041694001900002118
:04169800000000004E
:04169C0023BD000466
:0416A0008FC8FFF8F8
:0416A4008D080000AD
:0416A80000086821AD
:0416AC00AFCD0004BA
:0416B0008FC80004DB
:0416B4000008802189
:0416B8008FC8FFF4E4
:0416BC0000084021C1
:0416C000A110000075
:0416C4008FC8FFF4D8
:0416C80025080001F0
:0416CC000008682189
:0416D000AFCDFFF4A7
:0416D4008FC8FFF8C4
:0416D80025080004DD
:0416DC000008682179
:0416E000AFCDFFF893
:0416E4008FC8FFF8B4
:0416E8008D08000069
:0416EC000008702161
:0416F00020080000CE
:0416F4000008782151
:0416F80001CF482AAC
:0416FC0001EE502A81
:04170000012A402753
:04170400000847C0D2
:04170800000847C2CC
:04170C003908000197
:041710003908000193
:041714001900FFE1D8
:0417180000000000CD
:04171C002010000099
:041720008FC8FFF47B
:041724000008402158
:04172800A11000000C
:04172C002008000091
:04173000000810217C
:04173400001EE8218A
:041738008FBE000060
:04173C0023BDFFFCCE
:041740008FBF000057
:0417440023BDFFFCC6
:0417480003E00008B2
:04174C0023BD0004B5
:04175000AFBF000027
:0417540023BD0004AD
:04175800AFBE000020
:04175C00001DF0215B
:0417600023BD0004A1
:041764008FC8FFF833
:041768000008402114
:04176C0081100000E8
:04177000AFD00004F2
:041774008FC8000416
:04177800200C000041
:04177C00010C482AEA
:041780000188502A62
:04178400012A4027CF
:04178800000847C04E
:04178C00000847C248
:041790003908000113
:041794001900001C1C
:04179800000000004D
:04179C008FC8FFF4FF
:0417A00000086821B4
:0417A4008FC80004E6
:0417A800ADA80000E8
:0417AC008FC8FFF4EF
:0417B0002508000404
:0417B40000086821A0
:0417B800AFCDFFF4BE
:0417BC008FC8FFF8DB
:0417C00025080001F7
:0417C4000008682190
:0417C800AFCDFFF8AA
:0417CC008FC8FFF8CB
:0417D00000084021AC
:0417D4008110000080
:0417D800AFD000048A
:0417DC008FC80004AE
:0417E000200C0000D9
:0417E400010C482A82
:0417E8000188502AFA
:0417EC00012A402767
:0417F000000847C0E6
:0417F400000847C2E0
:0417F80039080001AB
:0417FC0039080001A7
:041800001900FFE6E6
:0418040000000000E0
:041808008FC8FFF492
:04180C000008682147
:0418100020080000AC
:04181400ADA800007B
:0418180020080000A4
:04181C00000810218F
:04182000001EE8219D
:041824008FBE000073
:0418280023BDFFFCE1
:04182C008FBF00006A
:0418300023BDFFFCD9
:0418340003E00008C5
:041838003C0100105F
:04183C00342101084A
:041840000001402043
:041844002009000176
:04184800A1090000F2
:04184C00A1040001F2
:041850009109FFFCFF
:041854002529000141
:04185800AD09FFFCDB
:04185C0003E000089D
:0418600023BD0004A0
:04186400AFBF000012
:04186800200400A2B6
:04186C000C10060E48
:041870002004003D13
:041874000C10060E40
:041878002004003E0A
:04187C000C10060E38
:041880000000000064
:04188400200400201C
:041888000C10060E2C
:04188C000000000058
:041890008FBF000006
:04189400200100042B
:0418980003A1E8229E
:04189C0003E000085D
:0418A0000000000044
:0418A400200100011E
:0418A8000081202279
:0418AC001C80FFFDA0
:0418B0000000000034
:0418B40003E0000845
:0418B800000000002C
:0418BC000480000C98
:0418C00020010009FA
:0418C400008140223D
:0418C8001D000009F6
:0418CC000000000018
:0418D0003C010010C7
:0418D40034210000BB
:0418D80000014020AB
:0418DC0001044020A3
:0418E0009103000070
:0418E40020020000DE
:0418E80003E0000811
:0418EC0000000000F8
:0418F00020020001D1
:0418F40003E0000805
:0418F80000000000EC
:0418FC000480000D57
:0419000000000000E3
:0419040020010009B5
:0419080000814022F8
:04190C001D000009B1
:0419100000000000D3
:041914003C01001082
:041918003421000076
:04191C000001402066
:04192000010440205E
:04192400A105000019
:041928002002000099
:04192C0003E00008CC
:0419300000000000B3
:04193400200200018C
:0419380003E00008C0
:04193C0000000000A7
:0419400023BD0004BF
:04194400AFBF000031
:0419480023BD0004B7
:04194C00AFB2000036
:0419500023BD0004AF
:04195400AFB100002F
:0419580023BD0004A7
:04195C00AFB0000028
:04196000200400005F
:041964000C10062F2E
:04196800000000007B
:04196C0020700000E7
:041970002011000042
:041974002224000128
:041978000C10062F1A
:04197C000000000067
:04198000222400001D
:041984000003282014
:041988000C10063FFA
:04198C000000000057
:04199000200100072B
:04199400022190227A
:0419980022310001F7
:04199C001A40FFF5F9
:0419A0000000000043
:0419A40022240000F9
:0419A80000102820E3
:0419AC000C10063FD6
:0419B0000000000033
:0419B4008FB20000EE
:0419B8002001000406
:0419BC0003A1E82279
:0419C0008FB10000E3
:0419C40020010004FA
:0419C80003A1E8226D
:0419CC008FB00000D8
:0419D00020010004EE
:0419D40003A1E82261
:0419D8008FBF0000BD
:0419DC0020010004E2
:0419E00003A1E82255
:0419E40003E0000814
:0419E80000000000FB
:0419EC003C010010AA
:0419F000342102009C
:0419F400000140208E
:0419F80020090001C1
:0419FC00A10900003D
:041A00008109000157
:041A04001920FFFEA8
:041A080000000000DA
:041A0C009102001033
:041A1000A100000031
:041A140003E00008E3
:041A180023BD0004E6
:041A1C00AFBF000058
:041A200023BD0004DE
:041A2400AFB300005C
:041A280023BD0004D6
:041A2C00AFB2000055
:041A300023BD0004CE
:041A3400AFB100004E
:041A380023BD0004C6
:041A3C00AFB0000047
:041A400020900000F2
:041A4400201100006D
:041A480000B1902237
:041A4C001A40001E1E
:041A50000000000092
:041A54000C10067BF1
:041A5800000000008A
:041A5C002053000013
:041A600022640000FC
:041A64002012000D3F
:041A6800125300090C
:041A6C00201200083C
:041A70001253000B02
:041A74000C10060E3E
:041A7800000000006A
:041A7C00A2130000B1
:041A8000221000012F
:041A8400223100010A
:041A880008100692AA
:041A8C000000000056
:041A90000C10060E22
:041A9400000000004E
:041A9800081006B27A
:041A9C000000000046
:041AA0001A20FFE920
:041AA400000000003E
:041AA8000C10060E0A
:041AAC000000000036
:041AB0002001000110
:041AB4000201802289
:041AB8002001000108
:041ABC000221882259
:041AC0000810069272
:041AC400000000001E
:041AC800A200000078
:041ACC0022220000D2
:041AD0008FB30000D0
:041AD40020010004E9
:041AD80003A1E8225C
:041ADC008FB20000C5
:041AE00020010004DD
:041AE40003A1E82250
:041AE8008FB10000BA
:041AEC0020010004D1
:041AF00003A1E82244
:041AF4008FB00000AF
:041AF80020010004C5
:041AFC0003A1E82238
:041B00008FBF000093
:041B040020010004B8
:041B080003A1E8222B
:041B0C0003E00008EA
:041B100000000000D1
:041B140023BD0004E9
:041B1800AFBF00005B
:041B1C0023BD0004E1
:041B2000AFB0000062
:041B2400209000000D
:041B28008204000033
:041B2C00100400059C
:041B30000C10060E81
:041B340000000000AD
:041B38002210000176
:041B3C00081006CABD
:041B400000000000A1
:041B44002004000D6C
:041B48000C10060E69
:041B4C000000000095
:041B50008FB0000052
:041B54002001000468
:041B580003A1E822DB
:041B5C008FBF000037
:041B6000200100045C
:041B640003A1E822CF
:041B680003E000088E
:041B6C000000000075
:041B70003C01001024
:041B7400342101080F
:041B78000001402008
:041B7C002009000636
:041B8000A1090000B7
:041B8400AD040001AB
:041B88009109FFFCC4
:041B8C002529000106
:041B9000AD09FFFCA0
:041B940003E0000862
:041B98003C010010FC
:041B9C0034210108E7
:041BA00000014020E0
:041BA400200900050F
:041BA800A10900008F
:041BAC00AD04000183
:041BB0009109FFFC9C
:041BB40025290001DE
:041BB800AD09FFFC78
:041BBC0003E000083A
:041BC0003C010010D4
:041BC40034210108BF
:041BC80000014020B8
:041BCC0020090004E8
:041BD000A109000067
:041BD4009109FFFC78
:041BD80025290001BA
:041BDC00AD09FFFC54
:041BE00020082710A2
:041BE40020010001DB
:041BE8000101402295
:041BEC001D00FFFDDC
:041BF00003E0000806
:041BF40023BD001CF1
:041BF80023BD0014F5
:041BFC0023BD0014F1
:041C000023BD0018E8
:041C040023BD0010EC
:041C080023BD0018E0
:041C0C0023BD0018DC
:041C100023BD0014DC
:041C140023BD0018D4
:041C180023BD0018D0
:041C1C0023BD0010D4
:041C200023BD0004DC
:041C240023BD00A03C
:041C280023BD00A038
:041C2C0023BD0004D0
:041C300023BD0320AD
:041C340023BD00C804
:041C3800200800017F
:041C3C001900019CEE
:041C400000000000A0
:041C44000C10061862
:041C4800200427103D
:041C4C000C10062949
:041C500023BD004070
:041C540023C8062477
:041C580000086821F7
:041C5C00AFCD0238CE
:041C60008FC80238EF
:041C64000008202133
:041C68002005003F14
:041C6C000C100686CC
:041C700023BD01008F
:041C740023C8066417
:041C780023BD000484
:041C7C00AFA800000D
:041C800023C806244B
:041C840023BD000478
:041C8800AFA8000001
:041C8C000C1005D360
:041C900000024021ED
:041C940000086821BB
:041C9800AFCD00F4D8
:041C9C0023C8000455
:041CA00023BD00045C
:041CA400AFA80000E5
:041CA80023C80664E3
:041CAC0023BD000450
:041CB000AFA80000D9
:041CB4000C100436D6
:041CB80000024021C5
:041CBC001900000902
:041CC0000000000020
:041CC40023C8002011
:041CC8000008682187
:041CCC00AFCD02385E
:041CD0008FC802387F
:041CD40000082021C3
:041CD8000C1006C521
:041CDC00081008A83C
:041CE0000000000000
:041CE40023C80048C9
:041CE80023BD000414
:041CEC00AFA800009D
:041CF00023C806649B
:041CF40023BD000408
:041CF800AFA8000091
:041CFC000C1004368E
:041D0000000240217C
:041D04001900003C86
:041D080000000000D7
:041D0C0023C80624BE
:041D1000000868213E
:041D1400AFCD023815
:041D18008FC8023836
:041D1C00000820217A
:041D20002005003F5B
:041D24000C10068613
:041D280023C8066462
:041D2C0023BD0004CF
:041D3000AFA8000058
:041D340023C8062496
:041D380023BD0004C3
:041D3C00AFA800004C
:041D40000C1005D3AB
:041D44000002402138
:041D48000008682106
:041D4C00AFCD00F423
:041D500023C806643A
:041D540023BD0004A7
:041D5800AFA8000030
:041D5C000C1005332F
:041D6000000240211C
:041D640000086821EA
:041D6800AFCD00F407
:041D6C008FC800F428
:041D700023BD00048B
:041D7400AFA8000014
:041D78000C10012426
:041D7C000002402100
:041D800000086821CE
:041D8400AFCD00F4EB
:041D88008FC800F40C
:041D8C0023BD00046F
:041D9000AFA80000F8
:041D940023C80664F6
:041D980023BD000463
:041D9C00AFA80000EC
:041DA0000C1004A47B
:041DA40000024021D8
:041DA80000086821A6
:041DAC00AFCD00F4C3
:041DB00023C806241A
:041DB40023BD000447
:041DB800AFA80000D0
:041DBC0023C80664CE
:041DC00023BD00043B
:041DC400AFA80000C4
:041DC8000C10059561
:041DCC0000024021B0
:041DD000000868217E
:041DD400AFCD00F49B
:041DD80023C80624F2
:041DDC000008682172
:041DE000AFCD023849
:041DE4008FC802386A
:041DE80000082021AE
:041DEC000C1006C50C
:041DF000081008A827
:041DF40000000000EB
:041DF80023C800609C
:041DFC0023BD0004FF
:041E0000AFA8000087
:041E040023C8066485
:041E080023BD0004F2
:041E0C00AFA800007B
:041E10000C10043678
:041E14000002402167
:041E18001900003578
:041E1C0000000000C2
:041E200023C80624A9
:041E24000008682129
:041E2800AFCD023800
:041E2C008FC8023821
:041E30000008202165
:041E34002005003F46
:041E38000C100686FE
:041E3C0023C806644D
:041E400023BD0004BA
:041E4400AFA8000043
:041E480023C8062481
:041E4C0023BD0004AE
:041E5000AFA8000037
:041E54000C1005D396
:041E58000002402123
:041E5C0000086821F1
:041E6000AFCD00F40E
:041E640023C8066425
:041E680023BD000492
:041E6C00AFA800001B
:041E70000C1005331A
:041E74000002402107
:041E780000086821D5
:041E7C00AFCD00F4F2
:041E800023C8023C35
:041E840023BD000476
:041E8800AFA80000FF
:041E8C008FC800F407
:041E900023BD00046A
:041E9400AFA80000F3
:041E98000C10000723
:041E9C0000024021DF
:041EA00000086821AD
:041EA400AFCD00F4CA
:041EA80023C8055CEA
:041EAC0023BD00044E
:041EB000AFA80000D7
:041EB40023C8023C01
:041EB80023BD000442
:041EBC00AFA80000CB
:041EC0000C10059568
:041EC40000024021B7
:041EC8000008682185
:041ECC00AFCD00F4A2
:041ED00023C8055CC2
:041ED4000008682179
:041ED800AFCD023850
:041EDC008FC8023871
:041EE00000082021B5
:041EE4000C1006C513
:041EE800081008A82E
:041EEC0000000000F2
:041EF00023C8007093
:041EF40023BD000406
:041EF800AFA800008F
:041EFC0023C806648D
:041F000023BD0004F9
:041F0400AFA8000082
:041F08000C1004367F
:041F0C00000240216E
:041F1000190000357F
:041F140000000000C9
:041F180023C80624B0
:041F1C000008682130
:041F2000AFCD023807
:041F24008FC8023828
:041F2800000820216C
:041F2C002005003F4D
:041F30000C10068605
:041F340023C8066454
:041F380023BD0004C1
:041F3C00AFA800004A
:041F400023C8062488
:041F440023BD0004B5
:041F4800AFA800003E
:041F4C000C1005D39D
:041F5000000240212A
:041F540000086821F8
:041F5800AFCD00F415
:041F5C0023C806642C
:041F600023BD000499
:041F6400AFA8000022
:041F68000C10015206
:041F6C00000240210E
:041F700000086821DC
:041F7400AFCD00F4F9
:041F78008FC800F41A
:041F7C0023BD00047D
:041F8000AFA8000006
:041F840023C8066404
:041F880023BD000471
:041F8C00AFA80000FA
:041F90000C1004A489
:041F940000024021E6
:041F980000086821B4
:041F9C00AFCD00F4D1
:041FA00023C8062428
:041FA40023BD000455
:041FA800AFA80000DE
:041FAC0023C80664DC
:041FB00023BD000449
:041FB400AFA80000D2
:041FB8000C1005956F
:041FBC0000024021BE
:041FC000000868218C
:041FC400AFCD00F4A9
:041FC80023C8062400
:041FCC000008682180
:041FD000AFCD023857
:041FD4008FC8023878
:041FD80000082021BC
:041FDC000C1006C51A
:041FE000081008A835
:041FE40000000000F9
:041FE80023C8008882
:041FEC0023BD00040D
:041FF000AFA8000096
:041FF40023C8066494
:041FF80023BD000401
:041FFC00AFA800008A
:042000000C10043686
:042004000002402175
:042008001900000DAE
:04200C0000000000D0
:0420100023C80624B7
:042014000008682137
:04201800AFCD02380E
:04201C008FC802382F
:042020000008202173
:042024002005003F54
:042028000C1006860C
:04202C008FC802381F
:042030000008202163
:042034000C1006C5C1
:04203800081008A8DC
:04203C0000000000A0
:0420400023C800A011
:0420440023BD0004B4
:04204800AFA800003D
:04204C0023C806643B
:0420500023BD0004A8
:04205400AFA8000031
:042058000C1004362E
:04205C00000240211D
:042060001900001B48
:042064000000000078
:042068002004000050
:04206C00200500014A
:042070000C10063F0B
:0420740023BD000484
:04207800200D000037
:04207C00AFCD076479
:042080008FC807649A
:0420840029080064C3
:042088001900000C2F
:04208C000000000050
:0420900020042710F1
:042094000C100629FD
:042098000C100650D2
:04209C008FC807647E
:0420A0002108000112
:0420A400AFC8076456
:0420A8008FC8076472
:0420AC00290800649B
:0420B00039080001EA
:0420B4001900FFF61A
:0420B8000000000024
:0420BC0020040000FC
:0420C00020050000F7
:0420C4000C10063FB7
:0420C800081008A84C
:0420CC000000000010
:0420D00023C800B46D
:0420D40023BD000424
:0420D800AFA80000AD
:0420DC0023C80664AB
:0420E00023BD000418
:0420E400AFA80000A1
:0420E8000C1004369E
:0420EC00000240218D
:0420F0001900001EB5
:0420F40000000000E8
:0420F80023C80624CF
:0420FC00000868214F
:04210000AFCD023825
:042104008FC8023846
:04210800000820218A
:04210C002005003F6B
:042110000C10068623
:0421140023C8066472
:0421180023BD0004DF
:04211C00AFA8000068
:0421200023C80624A6
:0421240023BD0004D3
:04212800AFA800005C
:04212C000C1005D3BB
:042130000002402148
:042134000008682116
:04213800AFCD00F433
:04213C0023C806644A
:0421400023BD0004B7
:04214400AFA8000040
:042148000C1005333F
:04214C00000240212C
:0421500000086821FA
:04215400AFCD00F417
:042158008FC800F438
:04215C000008202136
:042160000C1006E673
:04216400081008A8AF
:042168000000000073
:04216C0023C800CCB8
:0421700023BD000487
:04217400AFA8000010
:0421780023C806640E
:04217C0023BD00047B
:04218000AFA8000004
:042184000C10043601
:0421880000024021F0
:04218C001900001E18
:04219000000000004B
:0421940023C8062432
:0421980000086821B2
:04219C00AFCD023889
:0421A0008FC80238AA
:0421A40000082021EE
:0421A8002005003FCF
:0421AC000C10068687
:0421B00023C80664D6
:0421B40023BD000443
:0421B800AFA80000CC
:0421BC0023C806240A
:0421C00023BD000437
:0421C400AFA80000C0
:0421C8000C1005D31F
:0421CC0000024021AC
:0421D000000868217A
:0421D400AFCD00F497
:0421D80023C80664AE
:0421DC0023BD00041B
:0421E000AFA80000A4
:0421E4000C100533A3
:0421E8000002402190
:0421EC00000868215E
:0421F000AFCD00F47B
:0421F4008FC800F49C
:0421F800000820219A
:0421FC000C1006DCE1
:04220000081008A812
:0422040000000000D6
:0422080023C800E403
:04220C0023BD0004EA
:04221000AFA8000073
:0422140023C8066471
:0422180023BD0004DE
:04221C00AFA8000067
:042220000C10043664
:042224000002402153
:042228001900000495
:04222C0000000000AE
:042230000C1006F098
:04223400081008A8DE
:0422380000000000A2
:04223C0023C8066449
:0422400023BD0004B6
:04224400AFA800003F
:042248000C1004046E
:04224C00000240212B
:0422500000087021F1
:04225400200800005E
:0422580000087821E1
:04225C0001CF482A3C
:0422600001EE502A11
:04226400012A4027E4
:04226800000847C063
:04226C00000847C25D
:042270003908000128
:042274001900000944
:042278000000000062
:04227C0023C800343F
:0422800000086821C9
:04228400AFCD0238A0
:042288008FC80238C1
:04228C000008202105
:042290000C1006C563
:04229400081008A87E
:042298000000000042
:04229C00000000003E
:0422A0002008000111
:0422A40039080001F4
:0422A8001900FE66B5
:0422AC00000000002E
:00000001FF
